:020000040800F2
:1000000060040020B1010008B5010008B701000834
:10001000B9010008BB010008BD0100080000000094
:10002000000000000000000000000000BF01000808
:10003000C101000800000000C3010008C50100085C
:10004000C7010008C7010008C7010008C701000870
:10005000C7010008C7010008C7010008C701000860
:10006000C7010008C7010008C7010008C701000850
:10007000C7010008C7010008C7010008C701000840
:10008000C7010008C7010008C7010008C701000830
:10009000C7010008C7010008C7010008C701000820
:1000A000C7010008C7010008C7010008C701000810
:1000B000C7010008C7010008C7010008C701000800
:1000C000C7010008C7010008C7010008C7010008F0
:1000D000C7010008C7010008C7010008C7010008E0
:1000E000C7010008C7010008C7010008C7010008D0
:1000F000C7010008C7010008C7010008C7010008C0
:10010000C7010008C7010008C7010008C7010008AF
:10011000C7010008C7010008C7010008C70100089F
:10012000C7010008C7010008C7010008C70100088F
:1001300000F002F800F02CF80AA090E8000C8244CD
:100140008344AAF10107DA4501D100F021F8AFF2AA
:10015000090EBAE80F0013F0010F18BFFB1A43F0A5
:1001600001031847AC020000BC0200000023002479
:1001700000250026103A28BF78C1FBD8520728BFB7
:1001800030C148BF0B6070471FB51FBD10B510BD13
:1001900000F02BF81146FFF7F7FF00F01FF900F011
:1001A00049F803B4FFF7F2FF03BC00F051F8000078
:1001B00008480047FEE7FEE7FEE7FEE7FEE7FEE74A
:1001C000FEE7FEE7FEE7FEE703480449024A044B68
:1001D000704700003101000860000020600400202A
:1001E00060000020704770477047754600F02CF89B
:1001F000AE4605006946534620F00700854618B014
:1002000020B5FFF7E1FFBDE820404FF000064FF0BA
:1002100000074FF000084FF0000B21F00701AC463B
:10022000ACE8C009ACE8C009ACE8C009ACE8C0095A
:100230008D46704710B50446AFF300802046BDE8F8
:100240001040FFF7AEBF00000048704700000020DC
:1002500001491820ABBEFEE726000200704710B52A
:1002600000F036F800F004F800F092F810BD00003D
:100270001248806940F028001049886110480068E1
:1002800020F470000E4908600E48006820F47000E9
:100290000C4908600A48006840F4001008490860EA
:1002A0000848006840F4001006490860012006492B
:1002B00008600649C1F89401704700000010024030
:1002C000000C0140001801409401234200802142AB
:1002D0002B48006840F00100294908600846406842
:1002E00028490840264948600846006826490840D1
:1002F000234908600846006820F48020086008460A
:10030000406820F4FE0048600020886008460068CD
:1003100040F48030086000BF19480068400C002895
:10032000FAD04FF48060164948600846406840F4AF
:10033000E01048600846406840F480304860134848
:10034000006840F03200114908600D48006840F034
:1003500080700B49086000BF09480068400E002803
:10036000FAD00748406840F002000549486000BFE5
:1003700003484068C0F381000228F9D170470000AB
:10038000001002400000FFF8FFFFF6FE00200240D0
:100390004FF0E020006920F004004FF0E0210861F8
:1003A0007047014642F228324A434FF0E0235A6137
:1003B00000229A6101221A6100BF4FF0E022106909
:1003C00000F001021AB100F48032002AF5D00022B8
:1003D0004FF0E0231A619A6170470000FFF73FFF7A
:1003E0000FE008480068C0430749C1F89401074876
:1003F000D0F89401C0430549C1F894016420FFF787
:10040000D0FFEEE794012342000023420080214206
:100410002004000800000020600400006C010008B7
:0400000508000131BD
:00000001FF
